:020000040800F2
:1000000010D8002089020008553D0108D53B0108A1
:10001000533D01084B1A010871420108000000001D
:10002000000000000000000000000000C9010008FE
:10003000B71D01080000000025020008593D010815
:10004000A3020008A3020008A3020008A3020008FC
:10005000A3020008A3020008A3020008A3020008EC
:10006000A3020008A3020008A3020008A3020008DC
:10007000A3020008A3020008A3020008A3020008CC
:10008000A3020008A3020008A3020008A3020008BC
:10009000A3020008A3020008A3020008A3020008AC
:1000A000A3020008A3020008A3020008A30200089C
:1000B000793E0108853E0108A3020008A30200085A
:1000C000A3020008A3020008A3020008A30200087C
:1000D000A3020008A3020008A3020008A30200086C
:1000E000A3020008A3020008A3020008A30200085C
:1000F000A3020008A3020008A3020008A30200084C
:10010000A3020008A3020008A3020008A30200083B
:10011000A3020008A3020008A3020008A30200082B
:10012000A3020008A3020008A3020008A30200081B
:10013000A3020008A3020008A3020008A30200080B
:10014000A3020008A3020008A3020008A3020008FB
:10015000A3020008A3020008A3020008A3020008EB
:10016000A3020008A3020008A3020008A3020008DB
:10017000A3020008A3020008A30200080000000078
:10018000A3020008A3020008A3020008A3020008BB
:10019000A3020008A3020008A3020008A3020008AB
:1001A000E53B0108D93B0108151D0108DFF814D013
:1001B00011F09EFB11F04EF900480047698E0108CE
:1001C00011F0BDF910D800202C4B19680868B0E870
:1001D000F04F80F30988BFF36F8F4FF0000080F37A
:1001E000118870470000000008480068006880F32C
:1001F00008884FF0000080F3148862B661B6BFF340
:100200004F8FBFF36F8F00DF00BF00BF08ED00E02E
:10021000DFF80C00016841F470010160704700BF15
:1002200088ED00E0EFF30980BFF36F8F134B1A687E
:100230001EF0100F08BF20ED108A20E9F04F10606B
:1002400009B44FF0500080F31188BFF34F8FBFF314
:100250006F8F19F019FD4FF0000080F3118809BC71
:1002600019680868B0E8F04F1EF0100F08BFB0EC36
:10027000108A80F30988BFF36F8F70474C0000200D
:10028000EFF30580704700000648804706480047A6
:10029000FEE7FEE7FEE7FEE7FEE7FEE7FEE7FEE736
:1002A000FEE7FEE7253E0108AD010008704717F0A4
:1002B000CFBF70B5044600680D46016A20468847E6
:1002C000A84206D32068C16920468847A188884291
:1002D00001D8AFF300802068426A20469047A18889
:1002E000491CA18070BD70B50446006815460E46D5
:1002F000026A20469047A84201D2AFF300802068EE
:100300003146426A2046BDE87040104780887047F9
:1003100070B5044600680D460021426A20469047A9
:10032000281A86B22068016A20468847B6FBF0F694
:10033000A088B04212D920680021426A2046904726
:10034000281A85B22068016A20468847B5FBF0F17B
:1003500000FB1150002804BF304670BDAFF3008091
:10036000002181807047024901600021818070472F
:1003700048C5010870472DE9F04F91B00E46804600
:100380001C461546114668461A9F17F089FF2146FC
:1003900008A817F085FF68460DF0A8FD294608A8B3
:1003A0000DF08CFDBDF92010BDF80420BDF8220031
:1003B00012FB001208EB42051644BDF80020BDF9FF
:1003C00024401144ADF82010BDF802100844ADF8E7
:1003D0002200BDF926000490F94800680168096A06
:1003E0008847F84ABDF92010BDF92230B2F800C0A4
:1003F000FF2F0CFB031100EB41034FF0000172D201
:10040000DDF81090B9F1000F6BDD0020002C64DDE9
:10041000BDF9048006EB000C08FB01F212F80C2079
:10042000002A57D07A4302EB1222521CC2F3072251
:10043000002A4FD008FB01084FF0F80A35F8189051
:10044000C2F1FF0C0AEA192808FB02FBDFF87483EB
:10045000B8F8008008FB0108CDF81C8033F818803C
:100460000AEA182A0AFB0CBA1FFA8AFB4FF0FC0AA8
:100470000AEAD90E0AEAD80A0EFB02FE4FEAC96957
:100480004FEA19694FEAC86809FB02F24FEA186897
:1004900008FB0C220AFB0CEA0BEB1B2C0CF1010CE9
:1004A0001FFA8AFA0CF478480AEB1A2C0CF10109AD
:1004B0004FF4FC6C92B20CEA591C48EA0C0C02EBAB
:1004C0001222521CDDF81C80C2F307224CEAD20231
:1004D00023F81820401CA0429ADB0498491C814252
:1004E00093DB62E0FFE7049F002F5EDD0020002C1D
:1004F00057DD00BFBDF90470321807FB01FC1CF882
:100500000220EAB3FF2A58D007FB01074FF0F80991
:1005100035F81780C2F1FF0C09EA182707FB02FA29
:10052000A84F3F8807FB010B33F81B7009EA172916
:1005300009FB0CA91FFA89FA4FF0FC0909EAD80E49
:1005400009EAD7090EFB02FE4FEAC8684FEA1868AD
:10055000FF0608FB02F23F0E09FB0CE907FB0C2229
:100560000AEB1A2C0CF1010C1FFA89F90CF47847EC
:1005700009EB192C0CF1010892B24FF4FC6C00E06D
:100580000CE002EB12220CEA581C521C47EA0C0C3D
:10059000C2F307224CEAD20223F81B20401CA042DF
:1005A000A8DB0498491C8142A0DB854800680168EB
:1005B000496A884711B0BDE8F08F07FB010235F8A2
:1005C00012C0804A128802FB010223F812C0E5E73C
:1005D0002DE9F04F8FB080460888189D1E461446BE
:1005E0000F46012801D0AFF30080002D04BF0FB0EB
:1005F000BDE8F08F11460AA817F052FE31460CA84C
:1006000017F04EFE0AA80DF071FC21460CA80DF063
:1006100055FCBDF93000BDF82C20BDF8321012FB9E
:10062000010202EB0804BDF82820DFF89491104481
:10063000ADF83000BDF82A00BDF934600844ADF8CB
:100640003200BDF936000190D9F800000168D1F8F8
:1006500090108847DFF86C81012877D04846006801
:100660000168096A8847BDF93010BDF93220B8F831
:10067000003003FB021100EB410301980021002828
:100680005BDD0020002E50DD227802EB42023A446E
:10069000121DFF2D7BD092F802C092F800900CFB47
:1006A00005FEDFF820C192F801A04FF0F80BBCF86E
:1006B00000C0C5F1FF020CFB010809FB05F933F886
:1006C00018C00BEA1C2B0BFB02EB0AFB05FE4FF0DC
:1006D000FC0A0AEADC0A0AFB02EA4FEACC6C4FEA9F
:1006E0001C6C0CFB02921FFA8BFB0BEB1B2C0CF10E
:1006F000010C1FFA8AFA0CF478490AEB1A2C92B210
:100700000CF1010A4FF4FC6C02EB12220CEA5A1CA9
:10071000521C49EA0C0CC2F307224CEAD20223F81D
:100720001820641C401CB042AEDBBDF92C00491CF3
:10073000801B044401988142A3DB214800680168C2
:10074000496A88470FB0BDE8F08FFFE70DF1140A42
:1007500000230B22B8F800100120AAE80F0001992D
:10076000BDF82C0089B2CDE90210B2B20192BDF8F9
:10077000320004950090BDF830303A462146D9F851
:10078000000006F0CEFE0FB0BDE8F08FFFE792F854
:1007900002804FF4784C0CEA082892F801904FF44C
:1007A000FC6C0CEAC90C127848EA0C0C4CEAD20C2E
:1007B000044A128802FB010223F812C0B1E70000CC
:1007C0007C010020760100202DE9F04F06460888C4
:1007D00091B01C4615460F4608B1AFF30080114694
:1007E0000AA817F05DFD21460CA817F059FD0AA8CC
:1007F0000DF07CFB29460CA80DF060FBBDF9300024
:10080000BDF82C20BDF8321012FB01029419BDF87E
:100810002820BDF934501044ADF83000BDF82A004E
:100820000844ADF83200BDF93600FE4E0090306845
:100830000168D1F890108847DFF8EC9301287DD04B
:10084000304600680168096A8847BDF93010BDF973
:100850003220B9F8003007F1040803FB021100EB65
:10086000410600980022002862DD0021002D57DD9E
:10087000207858F82000030E4ED0FF2B04BFDDF87F
:1008800068C0BCF1FF0F7CD0DDF868C0C0F307473B
:100890000CFB03F303EB13235B1CC3F30723C3F12C
:1008A000FF0C17FB03F9E04F4FF0F80B3F8807FBF5
:1008B000021A36F81A700BEA172B1BFB0C991FFA59
:1008C00089F9C0F3072B1BFB03FE4FF0FC0B0BEA6F
:1008D000D70B1BFB0CEB1FFA8BFBC0B210FB03F01A
:1008E000FB061B0E13FB0C0009EB19235B1C03F426
:1008F000784C0BEB1B235F1C80B24FF4FC6300EBC6
:10090000102003EA5713401C4CEA0303C0F30720EE
:1009100043EAD00026F81A00641C491CA942A7DB50
:10092000BDF92C00521C401B0444009882429CDB01
:10093000BC4800680168496A884700E002E011B0DD
:10094000BDE8F08F0DF1140800230B22B9F8001058
:100950000120A8E80F00009A1A98BDF82C10CDE9E4
:10096000031092B2ABB2CDE90132BDF83200009073
:10097000BDF830303A462146306806F0D2FDDCE75B
:10098000FFE74FF4784303EA102C4FF4FC6303EACB
:1009900050134CEA0303C0F3C4000343A248008889
:1009A00000FB021026F81030B6E72DE9F04F91B0A9
:1009B000074608881A9E1C4615468846022801D01C
:1009C000AFF30080002E04BF11B0BDE8F08F1146D8
:1009D0000AA817F065FC21460CA817F061FC0AA8CC
:1009E0000DF084FA29460CA80DF068FABDF9300024
:1009F000BDF82C20BDF8321012FB0102D419BDF84D
:100A00002820DFF820921044ADF83000BDF82A000D
:100A1000BDF934500844ADF83200BDF936000190FC
:100A2000D9F800000168D1F8901088477E4F01285E
:100A300074D0484600680168096A8847BDF93010DB
:100A4000BDF932203B88FF2E03FB021100EB41036E
:100A500008F104017ED20198C6F1FF024FF0000EAA
:100A6000002859DD0020002D4DDD00BF94F800C0A6
:100A7000F827641C31F81CC007EA1C2808FB06F99B
:100A8000DFF8A481B8F8008008FB0E0A401C33F898
:100A90001A8007EA182707FB02971FFA87F9FC2735
:100AA00007EADC0B07EAD8074FEACC6C4FEA1C6C6C
:100AB0004FEAC8680CFB06FC4FEA186808FB02CC3A
:100AC0000BFB06FB07FB02B709EB1928BFB207EBCC
:100AD00017271FFA8CFC07F1010908F101084FF4F0
:100AE000FC670CEB1C2C08F4784807EA59170CF14A
:100AF000010C48EA0707CCF3072C47EADC0C23F883
:100B00001AC08542B2DCBDF92C000EF1010E401B6B
:100B1000044401988645A5DB4CE0FFE73A880020B5
:100B2000CDE905020B21CDE907100199BDF82C0094
:100B300089B2CDE90210AAB20192BDF83200049642
:100B40000090BDF8303042462146D9F8000006F04A
:100B5000E8FC00E002E011B0BDE8F08F019800264B
:100B6000002827DD002D1DDD3888704303EB400091
:100B7000801E15F0010F05D014F8012B31F812205A
:100B800020F8022F6A100DD014F801CB521E31F854
:100B90001CC0A0F802C014F801CB31F81CC020F82A
:100BA00004CFF1D1BDF92C00761C401B0444019800
:100BB000B042D7DC1B4800680168496A8847C8E72B
:100BC00038B50C78DDF810C044B1012C0BD0022CE4
:100BD00004BFCDF800C0FFF7E8FE38BDCDF800C077
:100BE000FFF7F2FD38BDCDF800C0FFF7F1FC38BDCE
:100BF0002DE9F04F91B006461C4615460F4604A855
:100C000017F04EFB294606A817F04AFB04A80DF082
:100C10006DF9394606A80DF051F9BDF91810BDF867
:100C2000142003E07C01002076010020BDF81A00AA
:100C300012FB001206EB8206BDF81020BDF91C5015
:100C40001144ADF81810BDF812100844ADF81A00A0
:100C5000BDF91E00FA4F099038680168896B884712
:100C6000FF2C19D010F0400F19D000BF0999BDF822
:100C70001400AAB289B203940092CDE90110386839
:100C8000BDF81A30BDF818200168D1F848C03146C7
:100C9000E04711B0BDE8F08F10F0200FE6D1E84832
:100CA00000680168096A8847E64ABDF91810BDF96D
:100CB0001A30B2F800C00CFB031100EB410C09988C
:100CC000002100285CDD0020002D55DDBDF9142039
:100CD00002FB010256F82220130E4AD0FF2B08BF58
:100CE000FF2C55D0C2F30747C2F3072A02F0FF09D1
:100CF00004FB03F202EB1222521CC2F30722C2F1E0
:100D0000FF0317FB02FECF4F4FF0F80B3F8807FBA6
:100D100001083CF818700BEA172B1BFB03EB1FFABA
:100D20008BFB1AFB02FE4FF0FC0A0AEAD70A1AFBF9
:100D300003EA1FFA8AFA19FB02F2FF063F0E17FBBD
:100D400003220BEB1B235B1C03F478470AEB1A23EB
:100D500003F101094FF4FC6392B203EA59133B43D8
:100D600002EB1222521CC2F3072243EAD2022CF8F1
:100D70001820401CA842A9DB0998491C8142A2DB2B
:100D8000AF4800680168496A884711B0BDE8F08F34
:100D90004FF4784303EA12274FF4FC6303EA52133B
:100DA0003B43C2F3C4021343A64A128802FB01026A
:100DB0002CF81230DDE72DE9F04F93B08A46DDE9DB
:100DC0001C458146002D04BF13B0BDE8F08F1646C8
:100DD0009846084604F0DBF80746504604F0FAF857
:100DE000ADF81C70ADF81860ADF81E00ADF81A80B3
:100DF000504604F09AF858B1504604F096F802288C
:100E000006D0504604F091F80B2801D0AFF30080D3
:100E1000504604F021F88046504604F03DF807465D
:100E2000504604F082F8022800F0EB80504604F0AF
:100E30007CF80B2800F0EE80504604F036F90026CE
:100E4000002800F00981514610A804F0E6F8DDE919
:100E50001001CDE90E010EA90AA817F021FAB4F984
:100E60000020B4F9040002EB000CBDF92800844511
:100E700040F3FE80BDF92C1000EB010A924540F3CF
:100E8000F780B4F902B0B4F906100BEB0103BDF919
:100E90002A108B4240F3EC80BDF92E300B445B45A9
:100EA00040F3E6809042D8BF10465945D8BF594616
:100EB0000FFA8AF20FFA8CFC6245A8BF6246121A3A
:100EC000ADF82C206288B4F806C01BB2624412B29E
:100ED0009342B8BF1A46521AADF82800ADF82E203A
:100EE000ADF82A10DDE90A01CDE90C01BDF83400A6
:100EF00000281CBFBDF8360000287CD0CDE9005684
:100F0000D9F800000CAB06AAD0F810C041464846FC
:100F1000E047BDF93210B4F90200814211DD2388A7
:100F2000A288091AADF81420ADF81030ADF81610EB
:100F3000ADF8120004AB06AA394640460095FFF70B
:100F40001AFABDF93010B4F90000814213DD091A14
:100F5000ADF81410BDF83630ADF81000BDF83220F1
:100F6000ADF81630ADF8122004AB06AA394640465B
:100F70000095FFF700FA2088A188BDF834200844C6
:100F800001B2BDF83000104400B2814213DD091AED
:100F9000ADF81410BDF83630ADF81000BDF83220B1
:100FA000ADF81630ADF8122004AB06AA394640461B
:100FB0000095FFF7E0F96088E188BDF83620084425
:100FC00001B2BDF83200104400B28142DCBF13B060
:100FD000BDE8F08F2288A388091AADF81430ADF867
:100FE0001020ADF81610ADF8120004AB06AA394671
:100FF0004046009500E044E0FFF7BDF913B0BDE8BE
:10100000F08F2B46224606A94046FFF7F1FD13B0AC
:10101000BDE8F08F97F800C04046394606AA23463F
:10102000BCF1000F10D0BCF1010F11D0BCF1020FC8
:1010300004BF0095FFF7B9FC13B0BDE8F08F0000C6
:101040007C010020760100200095FFF7BDFBF3E74F
:101050000095FFF7BDFAEFE7CDE90056D9F800009B
:10106000234606AAD0F810C041464846E047E3E7C9
:10107000ADF82860ADF82C60ADF82A60ADF82E60B0
:1010800030E7234606AA394640460095FFF773F934
:10109000D2E72DE9F04F8FB01D46DDE9184816461E
:1010A0000F46002C04BF0FB0BDE8F08F114606A814
:1010B00017F0F6F8294608A817F0F2F806A80CF081
:1010C00015FF314608A80CF0F9FEBDF92010BDF857
:1010D0001C20BDF8220012FB001207EB4206BDF8EF
:1010E0001820BDF924701144ADF82010BDF81A1075
:1010F0000844ADF82200BDF92600FE4D0290286894
:101100000168896B8847FF2C03D210F0040F07D1C8
:101110001DE008BFB8F1000F19D110F0010F16D073
:101120000299BDF81C0089B2CDE90110B8B2009057
:10113000CDE903482868BDF82230BDF820200168B9
:10114000D1F844C03146E0470FB0BDE8F08FE94820
:1011500000680168096A8847DFF89C83BDF92010A0
:10116000BDF92220B8F80030FF2C03FB021100EB80
:1011700041055AD202980021C4F1FF020028C8BFDD
:10118000C6466FDD0020002F4ADD00BFBDF91C30D0
:101190004FF0F80C03FB010336F813300CEA132868
:1011A00008FB04F9BEF8008008FB010A401C35F872
:1011B0001A800CEA182C0CFB029C1FFA8CF94FF0D9
:1011C000FC0C0CEAD30B0CEAD80CDB061B0E4FEA26
:1011D000C86863434FEA186808FB02330BFB04FB43
:1011E0000CFB02BC09EB19281FFA8CFC9BB20CEB20
:1011F0001C2C0CF1010903EB132308F101084FF437
:10120000FC6C5B1C08F478480CEA591C48EA0C0C8E
:10121000C3F307234CEAD30325F81A308742B5DC21
:101220000298491C8142ADDB1CE002980024002892
:10123000C4BFDFF8C0927F0014DDD9F800003B4640
:1012400032460168D1F834C02946E047B8F80000BA
:10125000641C05EB4005BDF91C0006EB4006029836
:10126000A042EADCA34800680168496A88470FB0D9
:10127000BDE8F08F70B582B00D46DDE90661DDF89E
:1012800020C01C460C2A24BF02B070BDDFE802F06B
:10129000061911191919191919191919CDE9001C6B
:1012A000016833462246D1F810C02946E04702B013
:1012B00070BD0B4602B0324621462846BDE870405C
:1012C00096E4AFF300802DE9F04FDFF828B2044632
:1012D0008BB0DBF8000015460E4690F84800022857
:1012E00000F0C080ADF8043001A803F01EFE0746F0
:1012F0002068416A2046884787427DD101A803F0D3
:10130000ABFD0490002877D0294608A816F0C8FF46
:10131000314602A816F0C4FF2E886F8801A803F09A
:1013200036FE054601A803F055FEADF81C50ADF899
:101330001860ADF81E00ADF81A7008A80CF0D6FDC4
:1013400002A80CF0D3FD06A80CF0D0FDDFF8A881B0
:101350000022BDF90890B8F80000114603B26748B2
:101360004B4500880FFA80FC10462FDDBDF90C506C
:1013700009EB0507974229DD01EB0C06BDF90AC010
:10138000664523DDBDF90E5065448D421EDD914555
:10139000D4BF1046484681468C45C8BF614638B226
:1013A0001A4412B29042A8BF1046A0EB0900ADF853
:1013B0000C0028B232B29042A8BF1046401AADF8D5
:1013C0000890ADF80E00ADF80A1007E0ADF808007F
:1013D000ADF80C00ADF80A00ADF80E00BDF90C50E8
:1013E000002D1CBFBDF90EC0BCF1000F36D0BDF9F9
:1013F0000830BDF9202000E034E0934232DBBDF933
:101400000A10BDF9220081422CDB2B44BDF9245087
:101410002A449A4226DBBDF92620614410448142C9
:1014200020DC2068816A204688470746DBF80000F8
:101430000168896A88470146BDF90820BDF818008F
:10144000BDF91C60101A00B2049D00280CDD05EBEC
:101450004005A6EB0000ADF81C000FE004980BB0AF
:10146000BDE8F08FAFF3008008DAA2EB0002ADF820
:101470000820BDF80C201044ADF80C00BDF90A207E
:10148000BDF81A00A2EB000000B200280ADD00FB44
:1014900006F205EB4205BDF81E20A2EB0000ADF8F8
:1014A0001E0009E008DAA2EB0002ADF80A20BDF840
:1014B0000E201044ADF80E00BDF91CA0BAF1000FCB
:1014C000C4BFBDF91E40002CC8DDBDF9082001EBEA
:1014D0004200BDF90A1001FB0709BDF90C00504597
:1014E000B8BF8246B8F80000821A5245D8BF92466B
:1014F00006E000007C010020760100207801002039
:10150000BDF90E20A242B8BF1446FE4A1288511AF5
:10151000A142D8BF0C46824508BF864223D1DBF8E2
:1015200000000168896B884710F0010F10D0ADF8FA
:101530000CA0ADF80E400096DBF800002B460168C9
:10154000D1F860C0DDE90212E0470BB0BDE8F08FD2
:10155000DBF8000004FB07F34A460168D1F834C009
:101560002946E0477AE74FF00008002CC8BF4FEA51
:101570004A0A7FF773AF00BFDBF8000053464A46C4
:101580000168D1F834C02946E04708F10108B944A0
:1015900005EB46054445EFDC60E7002B08BF7047CC
:1015A0002DE9F04F888887B01F469046002819BF64
:1015B000C888002807B0BDE8F08F04A816F070FEB8
:1015C00004A80CF093FCD04D28680168896B88470B
:1015D000FF2F03D010F0080F17D002E010F0020F19
:1015E00013D0BDF81600BDF81410CDE90010029715
:1015F0002868BDF81230BDF810200168D1F854C039
:101600004146E04707B0BDE8F08FBDF91440BDF991
:1016100016000090BC4800680168096A8847BB4B07
:10162000BDF91010BDF91220B3F800C04FF0F80A50
:1016300002FB0C1100EB410CC8F3C4204FEAC009B7
:10164000C8F3451086000AEAC800FF2F4DD20022D9
:10165000DDF80080C7F1FF011546B8F1000F63DD2A
:1016600009FB07F87E4347430020002C35DD00BF0F
:1016700002EB00094FF0F80A3CF81930401C0AEA66
:10168000132A0AFB018A1FFA8AFB4FF0FC0A0AEAB6
:10169000D30ADB060AFB016A1B0E03FB01731FFA68
:1016A0008AFA9BB20AEB1A2A0BEB1B2B0AF1010EEA
:1016B00003EB13230BF1010B4FF4FC6A5B1C0BF4DF
:1016C000784B0AEA5E1A4BEA0A0AC3F307234AEA8E
:1016D000D3032CF819308442CADC8C486D1C008876
:1016E000024400988542BFDB1EE000260098354684
:1016F0000028C8BF1FFA88F216DD002C0EDD0CEBA7
:101700004600801E14F0010F18BF20F8022F611050
:1017100004D0428020F8042F491EFAD118886D1C8D
:1017200006440098A842E8DC774800680168496AE6
:10173000884707B0BDE8F08F2DE9F04F1F462DED2B
:10174000028BABB089463798379BDDE93B46008971
:101750009B89DDE938A50021DDF8D8B0ADF864003B
:10176000ADF860109046ADF86210ADF8663018A87C
:101770000CF0BCFB3A68DBF80000BAF90030B5F9B0
:1017800000E0811A03EB020CAEEB0C000D908842D6
:10179000A2BF2BB0BDEC028BBDE8F08FB5F90450B1
:1017A0000EEB050008906045C2F211823798D9F817
:1017B00000B0C4F1FF05006812900590BAF902006C
:1017C000D7F814A0D9F80490504400FB0930104415
:1017D0000BEB40008E42C8BF0E46069600EE906AA4
:1017E000D8ED091A97ED070AF8EEE00AB7EE007A8D
:1017F00097ED0A1A97ED0D3A61EEA05A00EE906A45
:10180000D8ED0B1AF8EEE00A70EE253A21EEA05A58
:1018100000EE906AD8ED0D1A0026F8EEE00A71EE9F
:10182000052A1096E64561EEA04AC7EE000A33EE9F
:10183000242A60EE811A20EE830A3ADDDDF818C012
:101840000D9E069F96FBFCFC00EE90CA07FB1C66F3
:10185000F8EEE00A1096BCF1000F45EEA03A00EE5B
:1018600090CAF8EEE00A45EE202A00EE90CAF8EEA3
:10187000E00A04EEA02A14DD73EEE50AB0EE470A92
:10188000F5EEC00AF1EE10FA03D080EE201AB0EEA9
:10189000410A72EEC50A60EE801A72EE640A20EE0A
:1018A000800A0CFB17110CFB07F60CFB072200EB60
:1018B000460002EB010C03EB0C06DDF820C0B4453A
:1018C000BCBFACEB0301891A002942F38081069A60
:1018D000069B91FBF2F203FB12111B92079111B9C7
:1018E000511E07931B91DFED0A7ADFED0A6A1B99FF
:1018F000B6EE006A0029DCBF0799002942F3678130
:101900000AE00000780100207C0100207601002020
:101910000000804700008037C7EE230ADDF818C0BA
:1019200020EEA21A20EE824A61EEA70AFDEEE00A3E
:1019300010EE902A60EE270A34EE400AFDEEE00A2F
:1019400020EE270A10EE901A71EE610ABDEEC00A71
:1019500060EEA70AFDEEE00A10EE903A93FBFCF76A
:1019600010EE103A93FBFCF61B9B002BD8BFDDF862
:101970001CC0109B002B09DD07FB032206FB031193
:1019800000EB4300ACEB030C002310933A9B13F0E5
:10199000010F04BF02F5004201F500414FEA224960
:1019A000ACF1010303FB072803FB06134FEA284BA6
:1019B0004FEA214A4FEA2348B9F1000FA4BFBDF90D
:1019C00064304B4513DDBAF1000FA4BFBDF966903A
:1019D000D1450CDDBBF1000FA8BF5B4507DDB8F1B9
:1019E000000FA8BFC145C8BF4FF0000801DC4FF091
:1019F0000108DDF8E890B9F10A0F01F0BD840FDCB1
:101A0000B9F10A0F82F0D280DFE819F0170C960ABC
:101A10006E0B43086310631063106310540DE00FE6
:101A2000B9F12D0F14D009DCB9F10B0F01F0C0850D
:101A3000B9F12C0F00F0658302F0B8B8B9F12E0FA0
:101A400000F07B87B9F12F0F00F04C8502F0AEB8A3
:101A5000379B5B681B78002B00F06281012B04D060
:101A6000022B00F0618202F0A1B800230493BCF1C4
:101A7000000F42F39B8013144FEA2149B8F1000F85
:101A80000ED0002BA4BFBDF964A09A4540F33D8160
:101A9000B9F1000FA4BFBDF966A0CA4540F3358176
:101AA000DDF814A0BDF964B0534409FB0B33DDF835
:101AB000DC9093F800A09B44D9F804900AEB4A0A02
:101AC0000AF1040ACA44CDF88CA093F801A09BF84F
:101AD00000300AEB4A0A0AF1040A09EB0A0E9BF8E5
:101AE00001A003EB43031B1D0AEB4A0A4B440AF116
:101AF000040AD144DDF88CA09AF800A0CDF87CA0AF
:101B0000DDF88CA00AF1010ACDF88CA09EF800B097
:101B10000EF1010ACDF884A0CDF878B093F800B0AA
:101B200003F1010ACDF868B0CDF888A019F801BB1F
:101B3000CDF83CB0CDF89890C2F3033BC1F3033924
:101B40001BFB09FA4FEAEA03CDF890A009EB0B0A58
:101B5000CAF1000A03EB4A0A0AF1200EDDF87CA064
:101B6000CDF838E01EFB0AFEC3EB4B0ADDF878B077
:101B7000CDF834A01BFB0AEAC3EB4909DDF868B0D5
:101B8000CDF8309019FB0BF9DDF83CB01BFB03934B
:101B90005344DDF88CA0C3F3471325931AF8019B37
:101BA000CDF88CA0DDF884A0CDF87C901AF8013B2C
:101BB000CDF884A0DDF888A0DDF898909AF800A010
:101BC000CDF82CA0DDF888A00AF1010ACDF888A094
:101BD00099F80090CDF87890DDF89890DDF890A015
:101BE00009F10109CDF89890DDF838E0DDF87C9036
:101BF0004FEAEA0B1EFB09F9DDF834A013FB0A9348
:101C0000DDE90BA919FB0AFADDF8789019FB0BA99D
:101C1000DDF88CA04B44C3F3471B9AF80090DDF825
:101C200084A0CDF87C90DDF898909AF80030DDF82B
:101C300088A09AF800A0CDF878A099F800A0CDF877
:101C400068A0DDF890A04FEAEA09CDF82C90DDF805
:101C50007C901EFB09F9DDF834A013FB0A93DDF834
:101C600078A0DDF8309019FB0AFEDDF868A0DDF8F9
:101C70002C901AFB09E94B44C3F34719FF2C36D0CB
:101C800003884FF0F80A0AEA132E4FF0FC0A0AEA1A
:101C9000D30A0BFB04FB0AFB05BADDF894B0DB06A4
:101CA0001B0E09FB04F90BFB04FB0EFB059903FB60
:101CB00005B31FFA89F91FFA83FB09EB19235B1C93
:101CC0001FFA8AFA03F478490AEB1A2303F1010A8E
:101CD0004FF4FC6303EA5A1349EA03030BEB1B2995
:101CE00009F10109C9F3072943EAD9030CE04FF4CC
:101CF000784303EA09294FF4FC6303EACB0349EA7A
:101D00000309259B49EAD3030380049B801C5B1CC9
:101D10003A44314404936345FFF6ADAE01F046BF4B
:101D200000230C93BCF1000F41F3408713144FEADA
:101D30002149B8F1000F0CD0002BA4BFBDF964A05D
:101D40009A457DDDB9F1000FA4BFBDF966A0CA4573
:101D500076DDDDF814A0BDF964E0534409FB0E33D1
:101D6000DDF8DC9093F800B04FF0040AD9F8049045
:101D70000AEB8B0A59F80AB0CDF868B093F801B0B5
:101D800073444FF0040A0AEB8B0A93F800E04FF01B
:101D9000040B0BEB8E0B59F80AA059F80BE093F8E3
:101DA00001B0042303EB8B0359F80330CDE91EAED9
:101DB000C2F3072AC1F307291AFB09FB4FEA1B2EBE
:101DC000AAEB0E0BCDF83CB0A9EB0E0BCAF5807A4E
:101DD000CDF82CE0AAEB0909CDF838B009EB0E0AD2
:101DE000DDF868B0CDF810A00BF0FF1909FB0AF977
:101DF000DDF878A0DDF83CB00AF0FF1A0AFB0B9979
:101E0000DDF87CB00BF0FF1ADDF838B00AFB0BFAF6
:101E100003F0FF1B0BFB0EAACA444FF0FF1909EA9F
:101E20001A29DDF868B0DDF810A00BF47F4B0BFB2E
:101E30000AFEDDF878A0DDF83CB00AF47F4A00E045
:101E400067E00AFB0BEADDF87CB003F47F430BF498
:101E50007F4EDDF838B0FF2C0EFB0BFBDDF82CE0DD
:101E600003FB0EB39A444FF47F4303EA1A2349EA73
:101E700003033FD0C3F3074B03F0FF0AB0F8009011
:101E8000C3F3072EF823CDF82CA003EA192A0BFB85
:101E900004FB0AFB05BAFC2303EAD9031FFA8AFBF9
:101EA0000EFB04FA03FB05A3DDF82CA04FEAC96979
:101EB0004FEA19690AFB04FA09FB05A90BEB1B2A77
:101EC0009BB203EB13231FFA89F903F1010B0AF10B
:101ED000010A4FF4FC6309EB19290AF4784A03EA72
:101EE0005B1309F101094AEA0303C9F3072943EA2D
:101EF000D9030DE04FF4784909EA132A4FF4FC693D
:101F000009EA53194AEA0909C3F3C40349EA030376
:101F100003800C9B801C5B1C3A4431440C9363454A
:101F2000FFF604AF01F042BE00230493BCF1000FA2
:101F300041F33C860B144FEA2249B8F1000F0CD054
:101F4000B9F1000FA4BFBDF964A0CA457DDD002B27
:101F5000A4BFBDF966A09A4577DDDDF814A0BDF9F0
:101F600064E0D14403FB0E9B379BCDF838B04FF0B3
:101F7000040AD3F804909BF800300AEB430339F8C5
:101F800003300F939BF80130F3440AEB430339F815
:101F900003301A939BF800300AEB430339F803E04F
:101FA0009BF80130C2F3033B0AEB430339F803907B
:101FB0000F9BCDF838E023F4FC6E03F4FC634EEA8B
:101FC000034E1A9BCDF83CE023F4FC6E03F4FC6353
:101FD0004EEA034E0E9BCDF868E023F4FC6E03F44A
:101FE000FC634EEA034E29F4FC6309F4FC69C1F377
:101FF000033A43EA09491BFB0AF3CDF838900AEB90
:102000000B09DB10CDF878E0C9F1000903EB4909B1
:10201000DDF83CE009F1200909FB0EF9DDF868E084
:10202000C3EB4B0B0EFB0B9BDDF878E0C3EB4A09CF
:1020300009FB0EFADDF8389009FB03A35B445B094A
:102040004FF4FC6A0AEA134900E04FE023F4FC6312
:1020500049EA03039BB2FF2C47D04FF0F80BB0F8CE
:1020600000900BEA132ECDF868E04FF0FC0E0EEA5C
:10207000D30EDB061B0E0B93FC230BEA192B03EA92
:10208000D903CDF83CE04FEAC9694FEA196ECDF8A3
:1020900030E0DDF868E00EFB04F90BFB05991FFA50
:1020A00089FBDDF83CE00BEB1B2B0EFB04F903FB7B
:1020B00005931FFA83F90B9BDDF830E063430EFBB9
:1020C00005339BB209EB19290BF1010B09F1010949
:1020D00003EB13230BF4784B0AEA59195B1C4BEA08
:1020E0000909C3F3072349EAD3030380049B801C37
:1020F0005B1C3A44314404936345FFF61BAF01F087
:1021000055BD379B5B681B78F3B3012B03D0022BC3
:1021100075D001F04BBD00230493BCF1000F41F3D7
:10212000458500BF0B144FEA2249B8F1000F0CD0CF
:10213000B9F1000FA4BFBDF964A0CA4572DD002B40
:10214000A4BFBDF966A09A456CDDDDF814A0D144AA
:10215000BDF964A003FB0A99379BD3F804A099F852
:10216000003003EB43031B1D5344FF2C48D0B0F851
:1021700000904FF0F80A4FF0FC0B0AEA192A0BEA1C
:10218000D90B4FEAC96900E057E0CDF834B04FEA07
:10219000196BCDF830B093F8029093F801B093F832
:1021A00000E009FB04F30AFB05331FFA83F90BFB7C
:1021B00004F3DDF834B00EFB04FA0BFB0533DDF855
:1021C00030B09BB20BFB05AA03EB132309EB1929D3
:1021D00003F1010B09F101094FF4FC6309F478499B
:1021E00003EA5B131FFA8AFA49EA03030AEB1A2986
:1021F00009F10109C9F3072943EAD90311E0A3E072
:1022000093F802A04FF4784909EA0A2A93F801B03A
:102210004FF4FC6909EACB091B784AEA090949EA43
:10222000D3030380049B801C5B1C3A443144049319
:102230006345FFF677AF01F0B9BC4FF0000EBCF17B
:10224000000F41F3B38413144FEA2149B8F1000F92
:102250000CD0002BA4BFBDF964A09A456BDDB9F189
:10226000000FA4BFBDF966A0CA4564DDDDF814A067
:10227000FF2C5344BDF964A009FB0A39379B99F838
:1022800000A04FF004095B6809EB8A0953F8093094
:1022900042D0B0F800904FF0FC0B4FF0F80A0BEA78
:1022A000D90B0AEA192A4FEAC969CDF834B04FEAC6
:1022B000196BCDF830B0C3F3074B0BFB04FB0AFBE3
:1022C00005BAC3F30729DDF834B009FB04F90BFBA9
:1022D0000599DBB2DDF830B063430BFB05331FFA21
:1022E00089F91FFA8AFA09EB19299BB20AEB1A2A13
:1022F00009F1010B0AF1010A4FF4FC6903EB132306
:102300000AF4784A09EA5B195B1C4AEA0909C3F333
:10231000072349EAD3030DE04FF4784909EA132A69
:102320004FF4FC6909EA53194AEA0909C3F3C403E3
:1023300049EA03030380801C0EF1010E3A44314444
:10234000E64580DB01F032BCFF2C7CD200230493F5
:10235000BCF1000F41F32A840B144FEA2249B8F173
:10236000000F0CD0B9F1000FA4BFBDF964A0CA459D
:102370005EDD002BA4BFBDF966A09A4558DDDDF8EF
:1023800014A04FF0FC0ED144BDF964A003FB0A93E6
:10239000DDF8DC901B784FF0040AD9F804900AEBC2
:1023A000430399444FF0F80AB9F8009003880AEA09
:1023B000192B0EEAD90E4FEAC9694FEA1969CDF80F
:1023C0002C900AEA13294FF0FC0A0AEAD30ACDF846
:1023D00030A00BFB04FA09FB05A91FFA89FBDDF805
:1023E00030A00EFB04F90AFB05991FFA89FADDF803
:1023F0002C90DB061B0E09FB04F903FB05930BEB8A
:102400001B2909F1010909F4784B0AEB1A299BB23F
:1024100009F1010A4FF4FC6903EB132309EA5A1985
:102420005B1C4BEA0909C3F3072349EAD303038082
:10243000049B801C5B1C3A443144049363458BDB52
:1024400001F0B4BBFFE7BCF1000F41F3AF834FF0E5
:102450000009CDF838C003464FF0040BCDF81090BA
:10246000DDF81090B8F1000F07FB09294FEA294A5F
:10247000DDF8109006FB09194FEA29490DD0BAF191
:10248000000FA4BFBDF964E0D64519DDB9F1000F16
:10249000A4BFBDF966E0CE4512DDDDF814E0F244DC
:1024A000BDF964E009FB0EA9DDF8DCA099F8009005
:1024B000DAF804A00BEB49093AF80990A3F8009068
:1024C000DDF810909B1C09F10109CDF81090DDF8A2
:1024D0003890B9F10109CDF83890C1D100EB4C002A
:1024E00001F064BB379B5B681B78002B41F05E8377
:1024F0000493BCF1000F41F3598300BF0B144FEA62
:102500002249B8F1000F0ED0B9F1000FA4BFBDF9F8
:1025100064A0CA4540F30682002BA4BFBDF966A0A3
:102520009A4540F3FF81DDF814A0D144BDF964A0C1
:10253000CDF838A003FB0A93DDF8DC909E4613F833
:1025400001ABD9F804B04FF0040909EB8A0A5BF833
:102550000AA0CDF884A01B78DDF838A009EB83032E
:102560005BF803301F930AEB0E0393F800A009EB0E
:102570008A0A5BF80AA0CDF888A05B7809EB830390
:102580005BF803A0CDF894A0DDF884A01F9B4FEA70
:102590001A69DDF888A01B0E4FEA1A6EDDF894A0C8
:1025A00001EE909A4FEA1A6ACDF830A01FFA82FA2B
:1025B00000EE10AA03EE103AF8EE611AB8EE400AE7
:1025C000B8EE433A1FFA81FA00EE90AA20EE260AEE
:1025D00033EE613ADDF830A0F8EE600A43EE001AFF
:1025E00003EE10EA60EEA60AB8EE438A03EE10AAE4
:1025F000B8EE433A33EE483A03EE008A38EE613AD9
:1026000043EE201A71EE861AFCEEE11A11EE90AA42
:102610001AF0FF0ACDF878A07DD0DDF884A00AF08A
:10262000FF1B0AF47F4A0BFB09FB0AFB09FA4FF078
:10263000FF1909EA1B29D94409F1011B4FF0FF19C1
:1026400009EA1B2B0AEB1A2909F5807A4FF47F4916
:1026500009EA1A2A4BEA0A0ACDF884A0DDF87CA020
:10266000DDF87CB00AF0FF1A0BF47F4B0AFB03FA8B
:102670000BFB03F34FF0FF1B0BEA1A2BDA440AF1B2
:10268000011B03EB13234FF0FF1A03F580730AEAD3
:102690001B2A09EA13234AEA030B229BCDF87CB0DC
:1026A00003F0FF1A03F47F4303FB0EFB0AFB0EFA51
:1026B0004FF0FF1303EA1A23534403F1011A4FF0BA
:1026C000FF1303EA1A230BEB1B2A0AF5807ADDF8C5
:1026D00094B0DDF830E009EA1A2A43EA0A030BF461
:1026E0007F4BDDF894A00BFB0EFB0AF0FF1A0AFBF0
:1026F0000EFA4FF0FF1E0EEA1A2EF2440AF1011EE6
:102700000BEB1B2B4FF0FF1A0BF5807B0AEA1E2AFE
:1027100009EA1B2900E005E14AEA0909DDF884A07D
:102720004FEA1A4ECDF868E0DDF87CB04FEA134A64
:102730004FEA1B4ECDF830E0DDF868E04FEA194B68
:1027400001EE90EADDF830E008EE10BA03EE10EA90
:10275000F8EE611AB8EE488AB8EE433ADDF87CB07C
:1027600033EE613A43EE001A03EE10AAB8EE433A94
:1027700038EE438A08EE003A33EE613A43EE201A0F
:1027800071EE861AFCEEE11A11EE90AACAF3C40AA1
:102790004FEACA0ACDF83CA0DDF884A0CAF3072EA0
:1027A000CDF898E0CBF3072ECDF82CE0DDF898E0DB
:1027B000C3F3072B01EE90EADDF82CE0C9F3072AFA
:1027C00003EE10EAF8EE611A08EE10AAB8EE433AEA
:1027D000DBB2B8EE488A09F0FF0933EE613A43EE06
:1027E000001A03EE10BAB8EE433A38EE438A08EE08
:1027F000003A33EE613A43EE201A71EE861AFCEE8F
:10280000E11A11EE90AACAF3850A4FEA8A0ACDF8B6
:1028100068A0DDF884A0DDF87CB00AF0FF0A0BF0B8
:10282000FF0B01EE90AA03EE10BAF8EE611AB8EEB3
:10283000433A33EE613A43EE001A03EE103AB8EE33
:10284000433A08EE109AB8EE488A38EE438A08EE0A
:10285000003A33EE610A40EE201A31EE860ABCEEF1
:10286000C00A10EE103AC3F3C4034FEAC30E1E9B16
:10287000FF2B08BFFF2C4CD003884FF0F80A0AEA60
:10288000132B4FF0FC0ADDF878900AEAD30ADB0636
:10289000CDF838B004FB09F94FEA136B09EB19299D
:1028A00009F10109CDF830B00F9BC9F30729DDF814
:1028B00038B0C9F1FF0963431BFB09331FFA83FBDF
:1028C0001A9BCDF838B063431AFB0933DDF830B0FA
:1028D0009BB20EFB04FA1BFB09A9DDF838B003EB31
:1028E00013230BEB1B2A03F1010B0AF1010A4FF42E
:1028F000FC630AF4784A03EA5B131FFA89F94AEA8F
:10290000030A09EB19235B1CC3F307234AEAD30329
:1029100007E00F9B4FEA03291A9B49EAC30949EADA
:10292000DE030380049B801C5B1C3A443144049307
:102930006345FFF6E3AD01F039B9379B5B681B785F
:10294000002B41F033810493BCF1000F41F32E8141
:1029500013144FEA2149B8F1000F0CD0002BA4BF8B
:10296000BDF964A09A4579DDB9F1000FA4BFBDF9A6
:1029700066A0CA4572DDDDF814A05344BDF964A019
:1029800009FB0A33DDF8DC9093F800A00423D9F8A2
:10299000049003EB8A0359F803E05FEA1E696DD0E7
:1029A000B9F1FF0F08BFFF2C59D003884FF0F80A88
:1029B0000AEA132ACDF87CA04FF0FC0A0AEAD30AEF
:1029C000DB061B0E1A9304FB09F303EB13235B1CBA
:1029D000C3F30723C3F1FF09CDF878A0CDF83090F9
:1029E000CEF30749CEF3072B0EF0FF0A19FB03FEC7
:1029F000CDF834A0DDF87CA0DDF830901AFB09E9B1
:102A00001FFA89FE1BFB03FBDDF878A0DDF8309090
:102A10001AFB09B9DDF834A01FFA89FB1AFB03FA87
:102A2000DDF830901A9B13FB09A30EEB1E2909F168
:102A3000010909F4784A0BEB1B299BB209F1010B40
:102A40004FF4FC6903EB132309EA5B195B1C4AEAA8
:102A50000909C3F3072349EAD3030EE00EE04FF45C
:102A6000784909EA1E2A4FF4FC6909EA5E134AEA2A
:102A70000309CEF3C40349EA03030380049B801CCB
:102A80005B1C3A44314404936345FFF661AF01F0A7
:102A90008DB800230493BCF1000F41F3878000BF81
:102AA0004FEA224A4FEA214BB8F1000F0FD0BAF19A
:102AB000000FA4BFBDF96430534540F33282BBF12F
:102AC000000FA4BFBDF966305B4540F32A82379BF7
:102AD000D3F80490BDF964300BFB0399D14499F805
:102AE00000E0CDF888E099F801E0CDF884E019F82D
:102AF00003E009F10109CDF87CE013F80990DDF855
:102B000088E0CDF89CE0CDF89090DDF884E0CDF839
:102B100030E0DDF87CE0CDF898E0DDF89CE01FFACD
:102B200082F901EE90EADDF830E000EE109A03EE53
:102B300010EAF8EE611AB8EE400AB8EE433A1FFA0E
:102B400081F900EE909A20EE260A33EE613ADDF824
:102B500098E0DDF89090F8EE600A43EE001A03EE7C
:102B600010EA08EE109A60EEA60AB8EE433AB8EE04
:102B7000488A38EE438A08EE003A33EE613A43EE73
:102B8000201A71EE861AFCEEE11A11EE909A19F0F5
:102B9000FF09CDF8689000F0C481DDF8489009EB9A
:102BA0004A0903FB0BFA09EB4A0E3EF813B0BEF8D4
:102BB00000A0BEF802900EEB4303CDF838B04FF002
:102BC000F80B0BEA1A2EDDF888B05B880EFB0BFEC3
:102BD0004FF0F80BCDF82CE00BEA192EDDF884B09D
:102BE0000EFB0BFECDF83CE0DDF838B04FF0F80EF0
:102BF0000EEA1B2EDDF87CB00EFB0BFE4FF0F80B3F
:102C0000CDF834E00BEA132EDDF890B00EFB0BFB91
:102C1000DDF82CE00BEB1B2B0EEB1E2E0EF1010E44
:102C2000CEF3072ECDF82CE0DDF83CE00BF1010BE4
:102C30000EEB1E2E0EF1010ECEF3072ECDF8A0E006
:102C4000DDF834E0CBF3072B0EEB1E2E0EF1010E58
:102C5000CEF3072ECDF83CE0DDF82CE008EE10BAFC
:102C600001EE90EADDF8A0E0B8EE488A03EE10EA43
:102C7000F8EE611ADDF83CE0B8EE433A33EE613A23
:102C800043EE001A03EE10EAB8EE433A38EE438AF8
:102C900008EE003A33EE613A43EE201A71EE861ADE
:102CA000FCEEE11A11EE90BACBF3C40B4FEACB0B5A
:102CB000CDF83CB04FF0FC0B0BEADA0EDDF888B033
:102CC0000EFB0BFE4FF0FC0BCDF830E00BEAD90EFB
:102CD000DDF884B04FEACA6A0EFB0BFECDF8A0E027
:102CE000DDF838B04FF0FC0E0EEADB0EDDF87CB0FC
:102CF0004FEAC9690EFB0BFE4FF0FC0BCDF834E038
:102D00000BEAD30EDDF890B0DB060EFB0BFBDDF813
:102D100030E00BEB1B2B0EEB1E2E0EF1010ECEF353
:102D2000072ECDF830E0DDF8A0E00BF1010B0EEB43
:102D30001E2E0EF1010ECEF3072ECDF8A4E0DDF825
:102D400034E0CBF3072B0EEB1E2E0EF1010ECEF36B
:102D5000072ECDF8A0E0DDF830E008EE10BA01EE65
:102D600090EADDF8A4E0B8EE488A03EE10EAF8EE47
:102D7000611ADDF8A0E0B8EE433A33EE613A43EE73
:102D8000001A03EE10EAB8EE433A38EE438A08EE32
:102D9000003A33EE613A43EE201A71EE861AFCEEE9
:102DA000E11A11EE90BACBF3850B4FEA8B0BCDF8FD
:102DB000A0B04FEA1A6BDDF888A00BFB0AFACDF839
:102DC0002CA04FEA196ADDF88490DDF838B00AFBD0
:102DD00009F9CDF830904FEACB694FEA196ADDF86E
:102DE0007C900AFB09FE4FEA1369249BDDF82CA0B6
:102DF00009FB03F30AEB1A2909F10109C9F3072BAF
:102E0000DDF8309001EE90BA09EB192909F10109BA
:102E1000C9F3072A03EE10AAF8EE611A0EEB1E2979
:102E2000B8EE433A03EB132309F101095B1C33EEBF
:102E3000613AC9F30729C3F3072308EE103A43EEBA
:102E4000001A03EE109AB8EE488AB8EE433A38EE0C
:102E5000438A08EE003A33EE610A40EE201A31EE62
:102E6000860ABCEEC00A10EE103AC3F3C4034FEA60
:102E7000C30E1A9BFF2B08BFFF2C49D003884FF0CD
:102E8000FC0A0AEAD30B4FF0F80909EA1329DB061A
:102E90004FEA136A1A9BCDF834B0634303EB132354
:102EA0005B1CDDF83CB0C3F30723C3F1FF030BFB4E
:102EB00004FB19FB03B91FFA89FBCDF838B0DDF824
:102EC000A090DDF834B009FB04F91BFB03991FFA4D
:102ED00089F90EFB04FB1AFB03B3DDF838B009EBEC
:102EE00019290BEB1B2A9BB209F1010B0AF1010A0C
:102EF0004FF4FC6903EB13230AF4784A09EA5B19DF
:102F00005B1C4AEA0909C3F3072349EAD30307E034
:102F10000F9B4FEA0329289B49EAC30949EADE03CC
:102F20000380049B801C5B1C3A443144049363453A
:102F3000FFF6B6AD00F03ABE00230C93BCF1000FD3
:102F400040F3348613144FEA2149B8F1000F0CD036
:102F5000002BA4BFBDF964A09A457DDDB9F1000F37
:102F6000A4BFBDF966A0CA4576DDDDF848A0BDF96D
:102F700064E00AEB43030EFB09F903EB4909B9F8D6
:102F80000030B9F802B039F81EA009EB4E09C1F3C0
:102F9000033EB9F80290CDF838A023F4FC6A03F49C
:102FA000FC634AEA034ACDF83CA02BF4FC6A0BF41C
:102FB000FC634AEA034BDDF838A0CDF82C902AF4E4
:102FC000FC630AF4FC6A43EA0A4ACDF868B0CDF81B
:102FD00078A0DDF82CA0C2F303392AF4FC630AF4CC
:102FE000FC6A43EA0A4A19FB0EF3CDF838A00EEB4F
:102FF000090ADB10CAF1000A03EB4A0A0AF1200BA6
:10300000DDF83CA0C3EB49090BFB0AFADDF868B018
:103010000BFB09A9DDF878A0C3EB4E0B0BFB0AFBF9
:10302000DDF838A00AFB03B34B445B094FF4FC699D
:1030300009EA134923F4FC6349EA03039BB2FF2C1A
:1030400046D0B0F800904FF0F80E4FF0FC0B0EEAAF
:10305000192A0BEAD90B00E03BE04FEAC9694FEAB5
:103060001969CDE90D9B4FF0FC0B0EEA13290BEA11
:10307000D30BDB064FEA136E09FB04F30AFB05339F
:103080001FFA83FA0BFB04F3DDF838B0DDF8349057
:103090000BFB05331FFA83FB0EFB04F309FB05331F
:1030A0000AEB1A2909F1010909F4784E0BEB1B29E7
:1030B0009BB209F1010A4FF4FC6903EB132309EAFF
:1030C0005A195B1C4EEA0909C3F3072349EAD303E3
:1030D00003800C9B801C5B1C3A4431440C93634579
:1030E000FFF630AF00F062BD4FF0000EBCF1000FF4
:1030F00040F35C8513144FEA2149B8F1000F0CD05E
:10310000002BA4BFBDF964A09A457CDDB9F1000F86
:10311000A4BFBDF966A0CA4575DDDDF8DCA0BDF928
:1031200064B0DAF804A009FB0BAA13F80AA0CDF8E2
:1031300038A0BAF1000F76D0DDF848A00BFB09F9F2
:103140000AEB430333F81930DDF8389004FB09F932
:1031500009EB192909F10109C9F30729CDF83490C0
:10316000B9F1FF0F5ED2B0F800904FF0FC0B0BEA04
:10317000D90B4FF0F80ACDF87CB00AEA192A4FEAC9
:10318000C9694FEA1969CDF868904FF0FC0B4FF010
:10319000F8090BEAD30B09EA1329DB06CDF838B09E
:1031A0004FEA136BCDF82CB00D9BDDF834B0C3F1B2
:1031B000FF0309FB0BF90AFB03991FFA89F9CDF804
:1031C0003C90DDE90D9B0BFB09F9DDF87CB00BFBB6
:1031D00003991FFA89FADDF82CB0DDF834900BFB67
:1031E00009FBDDF8689009FB03B3DDF83C901FFA9A
:1031F00083FB09EB19235B1C03F478490AEB1A23C0
:1032000003F1010A00E00EE04FF4FC6303EA5A13F5
:1032100049EA03030BEB1B2909F10109C9F307294B
:1032200043EAD9030380801C0EF1010E3A44314475
:10323000E645FFF65FAF00F0B9BCFF2C6BD2002370
:103240000C93BCF1000F40F3B18413144FEA2149F1
:10325000B8F1000F0CD0002BA4BFBDF964A09A45B3
:103260004FDDB9F1000FA4BFBDF966A0CA4548DD26
:10327000DDF848A00AEB430ABDF9643003FB09F30B
:10328000B0F800903AF813304FF0F80A0AEA132B1E
:103290004FF0FC0A0AEAD30EDB061B0E1A93F82342
:1032A00003EA19230BFB04FB03FB05B30AEAD90A63
:1032B0001FFA83FB0EFB04F30AFB05331FFA83FAA4
:1032C0001A9B4FEAC9694FEA1969634309FB053341
:1032D0000BEB1B2909F1010909F4784B0AEB1A29B8
:1032E0009BB209F1010A4FF4FC6903EB132309EACD
:1032F0005A195B1C4BEA0909C3F3072349EAD303B4
:1033000003800C9B801C5B1C3A4431440C93634546
:103310009BDB00F04BBCBCF1000FC8BF002340F3A7
:10332000458400BF07FB03294FEA294A06FB03191E
:103330004FEA2949B8F1000F0DD0BAF1000FA4BF30
:10334000BDF964B0D34510DDB9F1000FA4BFBDF9DC
:1033500066B0CB4509DDBDF964B009FB0BAADDF809
:10336000489039F81A90A0F80090801C5B1CBCF1C2
:10337000010CD7D100F01ABC00230493BCF1000F5C
:1033800040F314840B144FEA2249B8F1000F0CD01B
:10339000B9F1000FA4BFBDF964A0CA457FDD002BC1
:1033A000A4BFBDF966A09A4579DDDDF848A00AEB17
:1033B000890ABDF9649009FB03F35AF823E05FEA38
:1033C0001E696CD0B9F1FF0F08BFFF2C58D00388DD
:1033D0004FF0F80A0AEA132ACDF87CA04FF0FC0A55
:1033E0000AEAD30ADB061B0E0B9304FB09F303EB7B
:1033F00013235B1CC3F30723C3F1FF09CDF878A0A7
:10340000CDF83090CEF3074ACEF3072B0EF0FF092C
:103410001AFB03FECDF83C90DDF87CA0DDF830907F
:103420001AFB09E91FFA89FE1BFB03FBDDF878A0F4
:10343000DDF830901AFB09B91FFA89FADDF83C90E3
:1034400019FB03FBDDE90B3913FB09B30EEB1E2956
:1034500009F1010909F4784B0AEB1A299BB209F129
:10346000010A4FF4FC6903EB132309EA5A195B1CA8
:103470004BEA0909C3F3072349EAD3030EE00EE040
:103480004FF4784909EA1E2A4FF4FC6909EA5E13F1
:103490004AEA0309CEF3C40349EA03030380049B09
:1034A000801C5B1C3A44314404936345FFF66AAFC9
:1034B00000F07CBB00230493BCF1000F40F3768343
:1034C0000B144FEA2249B8F1000F0CD0B9F1000FEC
:1034D000A4BFBDF964A0CA4560DD002BA4BFBDF93F
:1034E00066A09A455ADDDDF848A0FF2C0AEB890A50
:1034F000BDF9649009FB03F35AF823E03FD0038839
:103500004FF0F80909EA132A4FF0FC0909EAD30B36
:10351000DB064FEA1369CEF307436343CDE90C9B07
:103520000AFB0533CEF3072B0BFB04FADDF834B0AE
:103530000EF0FF090BFB05AA09FB04FB9BB2DDF8AB
:10354000309003EB132309FB05B95B1C1FFA8AFAC1
:1035500003F4784E1FFA89FB0AEB1A2303F10109E1
:103560004FF4FC6303EA59130BEB1B2909F1010922
:103570004EEA0303C9F3072943EAD9030DE04FF4E8
:1035800078434FF4FC6A03EA1E230AEA5E1943EA11
:103590000909CEF3C40349EA03030380049B801C9A
:1035A0005B1C3A4431440493634589DB00F0FEBA66
:1035B00000230493BCF1000F40F3F8820B144FEA90
:1035C0002249B8F1000F0CD0B9F1000FA4BFBDF92A
:1035D00064A0CA457DDD002BA4BFBDF966A09A4555
:1035E00077DDDDF848A00AEB890ABDF9649009FB94
:1035F00003F30AEB8303D3F800A0CDF894A0D3F82B
:1036000004A0CDF890A053F829B003EB8903DDF8AE
:1036100094A05B684FEA1A69DDF890A001EE909AD9
:103620004FEA1A6ACDF834A01FFA82FA00EE10AA07
:103630001FFA81FA00EE90AADDF834A0B8EE400A35
:1036400003EE10AAF8EE611A4FEA1B6EB8EE433A89
:1036500020EE260A23931B0E33EE613AF8EE600A41
:10366000CDF82CE043EE001A03EE10EA60EEA60A55
:10367000B8EE438A03EE103AB8EE433A33EE483AD6
:1036800003EE008A38EE613A43EE201A71EE861A94
:10369000FCEEE11A11EE90AA1AF0FF0ACDF878A01C
:1036A00017D0DDF894A0DDF894E00AF0FF1A0EF4CC
:1036B0007F4E0AFB09FA0EFB09FE4FF0FF1909EADB
:1036C0001A29D14409F1011A4FF0FF1909EA1A2AFF
:1036D00000E071E10EEB1E2909F5807E4FF47F4971
:1036E00009EA1E294AEA0909CDF89490DDF890A06C
:1036F000DDF834E0DDF890900AF47F4A09F0FF1914
:103700000AFB0EFA09FB0EF94FF0FF1E0EEA192E06
:10371000F14409F1011E4FF0FF1909EA1E290AEBD5
:103720001A2A0AF5807E4FF47F4A0AEA1E2A49EADD
:103730000A09CDF890900BF0FF190BF47F4ADDF8E1
:103740002CB009FB0BF90AFB0BFA4FF0FF1B0BEA3D
:10375000192BD94409F1011B4FF0FF1909EA1B2B62
:103760000AEB1A2909F5807A4FF47F4909EA1A29E8
:103770004BEA090ADDF88C90DDF88CB009F0FF19EE
:103780000BF47F4B09FB03F90BFB03F34FF0FF1B1B
:103790000BEA192BD94409F1011B4FF0FF1909EA73
:1037A0001B2903EB132303F5807B4FF47F4303EACC
:1037B0001B2349EA0303DDF894904FEA1A4E4FEABF
:1037C000194BDDF8909001EE90BA4FEA194903EEDB
:1037D000109AF8EE611ACDF83CE0B8EE433A4FEAA1
:1037E000134ECDF838E0DDF83CE033EE613A43EEBD
:1037F000001A03EE10EAB8EE433ADDF838E008EEBE
:1038000010EACAF3072E0AF0FF0AB8EE488A38EE2B
:10381000438A08EE003A33EE613A43EE201A71EE25
:10382000861AFCEEE11A11EE909AC9F3C4094FEA28
:10383000C909CDF83C90DDF89490C9F3072BDDF869
:10384000909001EE90BAC9F3072903EE109AF8EEB2
:10385000611ACDF868E0B8EE433AC3F3072ECDF80D
:1038600038E0DDF868E033EE613ADBB243EE001A8F
:1038700003EE10EADDF838E008EE10EAB8EE433A5D
:10388000B8EE488A38EE438A08EE003A08EE103A5D
:10389000B8EE488A33EE613A43EE201A71EE861A8A
:1038A000FCEEE11A11EE909AC9F385094FEA8909F5
:1038B000CDF86890DDF8949009F0FF0BDDF890905A
:1038C00001EE90BA09F0FF0903EE109AF8EE611AC2
:1038D000B8EE433A33EE613A43EE001A03EE10AA13
:1038E000B8EE433A38EE438A08EE003A33EE610A06
:1038F00040EE201A31EE860ABCEEC00A10EE103AF5
:10390000C3F3C4034FEAC3091E9BFF2B08BFFF2C60
:1039100049D003884FF0F80A0AEA132B4FF0FC0A4B
:103920000AEAD30ADB064FEA136E1E9BCDF82CE0A1
:10393000634303EB13235B1CDDF83CE0C3F3072375
:10394000C3F1FF030EFB04FE1BFB03EB1FFA8BFB13
:10395000CDF838B0DDF868B00BFB04FB1AFB03BAF6
:10396000DDF82CE01FFA8AFA09FB04F91EFB039329
:10397000DDF838B01FFA83FE0BEB1B235B1C03F44E
:1039800078490AEB1A2303F1010A4FF4FC6303EAB6
:103990005A1349EA03090EEB1E235B1CC3F30723EA
:1039A00049EAD30307E00F9B4FEA032A1A9B4AEA2E
:1039B000C30343EAD9030380049B801C5B1C3A4485
:1039C000314404936345FFF6F9ADEFE0002304931F
:1039D000BCF1000F7DDD00BF0B144FEA2249B8F1A6
:1039E000000F0CD0B9F1000FA4BFBDF964A0CA4507
:1039F00070DD002BA4BFBDF966A09A456ADDDDF835
:103A000048A0BDF964B00AEB89090BFB03F309EB8D
:103A10008303D3F800A0CDF83CA053F82BE0D3F8F3
:103A2000049003EB8B03C2F3072B5B68CDE91EE91F
:103A3000CDF884A0C1F307291BFB09FA4FEA1A2E1F
:103A4000ABEB0E0ACDF83CA0A9EB0E0ACDF838A0DE
:103A5000CBF5807AAAEB0909F144CDE90B9EDDF89C
:103A600084A00AF0FF1A0AFB09FBDDF87C90DDF860
:103A70003CA009F0FF1909FB0AB9DDF878A00AF0AB
:103A8000FF1BDDF838A00BFB0AFA03F0FF1B0BFB52
:103A90000EAACA444FF0FF1909EA1A2BDDF884A0D8
:103AA000DDF82C900AF47F4A0AFB09FEDDF87C90D1
:103AB000DDF83CA009F47F4909FB0AE9DDF878A0AC
:103AC00003F47F430AF47F4EDDF838A00EFB0AFAB8
:103AD00001E06BE061E0DDF830E0FF2C03FB0EA3BA
:103AE0004B444FF47F4909EA13234BEA030345D0C3
:103AF000B0F800904FF0FC0B4FF0F80A0BEAD90B2E
:103B00000AEA192A4FEAC969CDF834B04FEA196BAD
:103B1000CDF830B0C3F3074BC3F30729DBB20F93E3
:103B20000BFB04F30AFB05331FFA83FEDDF834B008
:103B300009FB04F30BFB05331FFA83F90F9BDDF838
:103B400030B063430BFB05331FFA83FA0EEB1E23E1
:103B50005B1C03F4784B09EB192303F101094FF4C3
:103B6000FC6303EA59130AEB1A2909F101094BEA2C
:103B70000303C9F3072943EAD9030DE04FF4784959
:103B800009EA132A4FF4FC6909EA53194AEA0909B8
:103B9000C3F3C40349EA03030380049B801C5B1C3A
:103BA0003A44314404936345FFF616AF73EEA53AE9
:103BB00072EE852A32EE242A1B99F0EE411AB0EEFD
:103BC000440A0029C4BF491E1B913DF793AE2BB098
:103BD000BDEC028BBDE8F08F10B55FEA000C4FF62C
:103BE000FF70FE4A128800EA42004FEA5000C0F11E
:103BF00000030BD001290FD0022903D0032911D0D3
:103C0000B2B113E0002A18BF10BD11E0012905D0A0
:103C1000022907D0032908D0012010BD002A18BFAF
:103C200010BD05E04FF0FF3010BD0AB1184610BDC1
:103C3000AFF30080E94A10B55FEA000C12884FF636
:103C4000FF7000EA42004FEA5000C0F100030CD0C0
:103C5000012904D0022910D0032904D015E0002A3C
:103C600018BF10BD0FE062B90DE0012905D002298F
:103C700006D0032909D032B110BD4FF0FF3010BD7E
:103C80000AB1184610BDAFF30080012010BD2DE928
:103C9000FF4F8FB0DDE92021DDF89C90B2F90000E4
:103CA00093881C9E03441BB204935388D288DDE999
:103CB00024A41A4412B20392DDE91E754A7BDDF892
:103CC0008CB012F0080318BF4FF4807391F806C04F
:103CD00012F0100243EA0C0818BF4FF48072CB793F
:103CE0001A430192B8F1000F12BF002A13B0BDE8C9
:103CF000F08F002F91F9091004BF31440EB207D0A4
:103D0000791A8FB239B2002902DAF11B0EB20027FC
:103D1000B04203DD811B39448FB20646B0480078BB
:103D2000012818BF00204B460290314611A81D9A69
:103D300004F0C4FCADF818004B46314611A81D9A9A
:103D400004F0D4FCADF81C0007A906A80AF046F858
:103D50000298CDF800A059EA000005D0B9F1010F92
:103D60004FD1029800284CD0DFF878A2DAF8000092
:103D70000168896B884710F0800F06D0042C04D1AD
:103D8000BBF1000F18BF012100D1002110F4807F8A
:103D900003D0082C08BF012000D00020084330D0F9
:103DA00000290CBF4FF48070802057EA050128D10C
:103DB000049906EB08028A4223DC019A1D990A4401
:103DC000039991421DDB082C1CBF08F1010121F071
:103DD00001082699CDE904100098CDF80080CDE9BE
:103DE0000280BDF81C0083B2BDF8180082B2DAF878
:103DF00000000168D1F84CC02299E04713B0BDE83B
:103E0000F08F109820B9774800680168096A8847E0
:103E10007249BDF91820BDF91C30098803FB012245
:103E200000EB420C0120A040401E00F0FF0A012CD4
:103E300008BFFF2007D0022C08BF552003D0042C58
:103E40000CBF112001200022C6460B90042C04D187
:103E5000BBF1000F18BF012000D1002010EA080FAD
:103E600018BF0EF1010E229857EA05030BD00EFB86
:103E70000572624393B203F0070200EBD300019B8B
:103E80005B1B9BB20193029D4FF6FF73002D4D46C5
:103E90000AD0012D1FD0022D04D0B9F1030F12D08A
:103EA00049B314E059B940E0012D07D0022D0AD0E2
:103EB000B9F1030F18BF012508D00CE0D9B103EA0E
:103EC00041056D0807E04FF0FF3504E099B103EAC2
:103ED00041056D086D42DDF808B0BBF1000F0DD053
:103EE000B9F1010F06D0B9F1020F15D0B9F1030FE6
:103EF00002D01CE061B918E091B916E0B9F1010FE8
:103F00000AD0B9F1020F0AD0B9F1030F0FD061B195
:103F100003EA41014B080BE04FF0FF3308E021B109
:103F200003EA410149084B4202E0AFF3008001235C
:103F3000DDF874900399A1EB090901998945C8BF7F
:103F40008946F61B0499891B4145D8BF8846A8EBD2
:103F500007010291AEEB0101614303910178CDF8B5
:103F60000490D140B9F1000F7EDD009E009FC6F3A2
:103F7000C426F6000E96009EC6F34516B6000D96B2
:103F8000F82606EAC7060C96029E05FB16330A932E
:103F9000029B002B75DD00BF11EA0A0661D00B9F62
:103FA0007743009EFF2FB6B204DBDDF89880B8F1AE
:103FB000FF0F54D2269E4FF0F80E7E43B6B20E9FEE
:103FC00006EB16260997761CBCF80070C6F3072688
:103FD000C6F1FF080EEA172E06E000007601002069
:103FE0006C0100207C010020DDE90C9BCDF820E075
:103FF0004FF0FC0E0EEAD70EFF06CDF814E04FEAA4
:10400000176ECDF810E0099FDDF820E077431EFB26
:104010000877DDF814E0BFB20BFB06FB1EFB08BB04
:10402000DDF810E01FFA8BFB09FB06F61EFB0866A5
:1040300007EB17277F1C07F478480BEB1B27B6B25A
:1040400007F101094FF4FC6706EB162607EA59173A
:10405000761C48EA0707C6F3072647EAD606ACF8F7
:104060000060224492B201E01EE00AE0E140082A2A
:1040700002D310F8011F00225B1E0CEB450C002B35
:104080008ADC039B3BB1D11889B200EBD10001F06F
:1040900007020178D1400A9B0CEB430C019B5B1E8D
:1040A0000193002B3FF774AF109800281CBF13B08A
:1040B000BDE8F08F034800680168496A884713B07B
:1040C000BDE8F08F7C01002070B5044690F82C50BC
:1040D00008790E4600280CBF0120002084F82C002F
:1040E00008B11DB109E0002D08BF70BD206841690D
:1040F00020468847002D08BF70BD3079012818BFC1
:1041000070BDA06A002808BF70BD0168C9688847F3
:10411000002808BF70BDA06A01688A682146BDE812
:10412000704010470749016000218180C180FF2154
:1041300001727047704714F08BB88180C28070475D
:10414000017270478CC40108FE48C068704770B5A2
:104150000C00054613D0FB4E0020A5F884007068C3
:1041600010B1016849698847746021682046C968B0
:1041700088472868816A2846BDE870400847AFF341
:104180000080F14900B50A88F04983B04FF0000C77
:104190000988ADF800C0ADF80420ADF802C0ADF854
:1041A00006100168CA6A6946904703B000BD2DE950
:1041B000F04F824610B28DB00C461546002812BF53
:1041C0005FEA25400DB0BDE8F08FBAF8E80000289E
:1041D00000F05981B0F1010900F155811FFA89F011
:1041E0000AEBC00021B2D0E92A870FFA88F0884292
:1041F00014DC22144FEA284393420FDC0FFA85FCAB
:104200003EB28C440644B44508DC02EB254C03EB7B
:1042100027429445DCBF0DB0BDE8F08F884239DB02
:104220004FEA284223149A4234DB0FFA87FC2EB25D
:1042300084440E4466452DDB02EB274C03EB2542FC
:10424000624527DB0020ADF81800ADF81C00ADF882
:104250001A00ADF81E00BAF8E8001FFA89F70AF153
:10426000A806B84240F20B8106EBC701884606A8B3
:1042700014F016F8B6F84000401E80B2A6F84000D0
:10428000B84240F2FC8006EBC001404614F008F84A
:1042900000F0F5B82AB28B1883426ADD3BB20344C2
:1042A0008B4266DD211401EB254C4FEA28439C45E7
:1042B0005FDD03EB27438B425BDD0020ADF8200080
:1042C000ADF82400ADF82200ADF82600BAF8E800F9
:1042D0001FFA89FB0AF1A806584512D906EBCB0153
:1042E00008A8009113F0DCFFB6F84000401E80B231
:1042F000A6F84000584504D906EBC001009813F019
:10430000CFFF3BB2002B18BF5FEA27467DD00FFAE4
:1043100085FBBBF1000F18BF5FEA254776D022B2BC
:104320000FFA88FC6245B4BF1046604686462014EA
:104330004FEA28484045B4BF014641465A446344C9
:1043400012B21BB29A42D8BF1A46384403B208EBE5
:10435000060000B28342C8BF18466EF30F04A2EBFA
:104360000E0262F30F05401A61F31F4460F31F450C
:1043700085E039B2A3462E46002918BF5FEA2743DD
:1043800047D00FFA86FCCDF810C0BCF1000F7BD0EF
:104390005FEA264CCDF80CC076D00FFA8BFCCDF836
:1043A00008C08445A8BF84464FEA2B4ECDF814C000
:1043B0004FEA284CCDE900ECE645B8BFF446E646A6
:1043C000DDF810C0DDF808800844C4440FFA8CFC06
:1043D00000B28445D8BF8446E046DDF800C00398AB
:1043E00060440FFA80FC0198184400B28445C8BFAD
:1043F0006046059BA0EB0E0063F30F0BA8EB0303D5
:104400006EF31F4B63F30F0601E038E042E060F308
:104410001F4628144243381401FB002000EB4001E2
:1044200001EBC00116FB16F000EB8000400081425A
:1044300025DD0020ADF82800ADF82C00ADF82A00ED
:10444000ADF82E00BAF8E8001FFA89F50AF1A804C1
:10445000A84212D904EBC5010F460AA813F020FFA9
:10446000B4F84000401E80B2A4F84000A84204D92D
:1044700004EBC001384613F013FF5C463546B9F132
:1044800001097FF5ABAE00E00FE0BAF8E8000828BC
:1044900016D07DE068F30F044FEA284063F30F0560
:1044A00060F31F4466F31F45E9E760F30F0B4FEA23
:1044B000284061F30F0660F31F4B63F31F46A8E724
:1044C0000020ADF80000ADF80400ADF80200ADF832
:1044D0000600BAF8E8000AF1A806072812D906F182
:1044E00038010F46684613F0DBFEB6F84000401E68
:1044F00080B2A6F84000072804D906EBC001384670
:1045000013F0CEFEDDE900010EB2002E18BF5FEA07
:1045100021493DD02FB2002F18BF5FEA254B2ED086
:1045200022B201B28A42B4BF94468C464FEA244874
:1045300000148045B4BF434603463A44314417B2A1
:1045400009B205E010010020720100207401002072
:104550008F42D8BF0F4608EB0B01484409B202B2A4
:104560009142C8BF0A466CF30F04A7EB0C0060F33E
:104570000F05D01A63F31F4460F31F4508E060F392
:104580000F04001466F30F0560F31F4469F31F4521
:10459000CDE90045BAF8E8200AF1A801082A01D3BC
:1045A000AFF3008001EBC200521CA1F84020694625
:1045B00013F076FE0DB0BDE8F08F2DE9F043002634
:1045C00085B081460F463446FE4800880FFA80F8D1
:1045D000FD48008805B2684613F062FEBDF9001080
:1045E00088452EDDBDF9040001EB000CB44528DD43
:1045F000BDF902006219824223DDBDF90630034491
:10460000A3421EDDB142D4BF35460D46A042C8BF0D
:1046100004460FFA8CF006EB080109B28842A8BFE5
:104620000846401BADF8040018B211B28842A8BF7A
:104630000846001BADF80050ADF80600ADF802408A
:1046400008E00020ADF80000ADF80400ADF802006D
:10465000ADF80600009802900198039002A9384630
:1046600013F01EFED9484068002804BF05B0BDE81D
:10467000F08399F82C1151B13946684613F010FEB9
:10468000DDE9001205B04846BDE8F0438FE501685A
:104690008A6839469047CE48006801684A6905B083
:1046A0003946BDE8F0431047C8484068002808BFB5
:1046B0007047026892691047C4484068002808BFE4
:1046C00070470268D2691047C0484068002808BF98
:1046D00070470268126A10472DE9F041BB4D04464D
:1046E0000026A86808B1017A19B194F82D11C1B952
:1046F00006E084F82D6101688968BDE8F04108474B
:1047000000281CBF007A00280BD0686810B101682F
:1047100009698847A8680168C9688847012084F842
:104720002D01B4F88400002700280FDDE01990F86F
:10473000880030B1201DB9B250F821000168096D20
:104740008847B4F884007F1CB842EFDC80B2431E77
:10475000002BA8BF04F1880C41DBE01890F888001A
:10476000D8BB211D98B20A4651F82080B4F88410B5
:10477000002000291DDD00BF52F82010414508BF70
:10478000014607D010E000BF02EB81077F6842F8C6
:104790002170491CB2F88070B942B8BF1F29F3DB01
:1047A000B9B2491EA2F88010B2F88010401C8142B4
:1047B000E2DCB4F8841098B281420AD92118401C76
:1047C00091F8892081F88820B4F8841080B2814261
:1047D000F4D8B4F8840000F80C605B1EBDD568689E
:1047E000002808BFBDE8F0810168496ABDE8F041D2
:1047F000084776484068002808BF70470268926AF8
:10480000104770472DE9F04FA9B00025044680F805
:104810002C1100291EBFA0F8E85029B0BDE8F08F88
:10482000B4F8E800002804BF29B0BDE8F08F04A860
:1048300008231A46674913F048FD0021634FA0F88A
:104840004010B4F8E8003E88B04288BF0DF170080F
:104850001CD900BF04F1A80000EBC60104AD40461E
:1048600013F01EFDBDF85000082880F0158205EBFE
:10487000C002401CADF850004146104613F010FD38
:10488000701C86B2B4F8E8008642E3D34F4805882E
:10489000B4F82A01A84288BF02AE11D904F1EA0097
:1048A00000EBC501304613F0FBFCDDE902122046A7
:1048B000FFF77DFC681C85B2B4F82A01A842EDD848
:1048C0004348006890F8480001284AD00228DFF8E1
:1048D00000813E4800F030810588B4F8E800A84225
:1048E00019D900BF04EBC500D0E92A10CDE90210A8
:1048F000BDF80C0000281CBFBDF80E00002804D035
:10490000206802A9C26A20469047681C85B2B4F8A4
:10491000E800A842E6D82D4D286958B12C490A680C
:1049200092F8761000291ABFD16C002991680268AC
:104930009268904728480078002804BF29B0BDE855
:10494000F08F0020A4F82A012D88BDF85000A8425D
:1049500087BF0DF110081EAF29B0BDE8F08F00F041
:104960008FB9DFF868C0B4F8E8200026BCF8000072
:1049700082420FDD04F1A80381B203EBC101B1F95A
:104980000230B1F906101944B142C8BF0E46401CAE
:104990008242EFDC0C4800880F288CBFC008012041
:1049A0000022ADF85820ADF85C201A90ADF85A20DE
:1049B000ADF85E201746002EC8BF0DF160087BDD04
:1049C000034D0BE072010020740100201001002053
:1049D0007C0100209D7B01086D0100202868016892
:1049E000D1F88C108847BDF95A10BDF95E201144EA
:1049F0001A9A0A448242C8BF864203DD8142C8BF78
:104A000000297BDD0AB2824201DC864200DA3046B0
:104A1000401A20A94FF0000CFE4B1B88ADF88430E3
:104A2000ADF880C0ADF88600ADF8822016A813F06E
:104A300037FCF9480588B4F8E800A8426ED900BFF1
:104A400004F1A80000EBC501404613F029FCBDF9B4
:104A50005820BDF95C00BDF9601002EB000C8C45DC
:104A60004DDDBDF9640001EB0009914547DDBDF95D
:104A70005A30BDF95E0003EB000ABDF962008245C1
:104A80003DDDBDF966B083449B4538DD9142D8BF1A
:104A900011469842D8BF18460FFA89F30FFA8CF2E4
:104AA0009342B8BF1A46521AADF864200FFA8BF23F
:104AB0000FFA8AF39A4200E038E0A8BF1A46121AA9
:104AC000ADF86010ADF86620ADF86200DDE91801C0
:104AD000CDE92201BDF88C0000281CBFBDF88E0076
:104AE000002804D0206822A9C26A20469047681C8A
:104AF00085B2B4F8E800A842A2D80FE008E0ADF80B
:104B00006070ADF86470ADF86270ADF86670DDE7A6
:104B100028680168D1F8882001219047BDF95A0022
:104B2000BDF95E100844B042FFF64AAFBB480068CA
:104B30000168C9698847EEE60688B4F8E800B04223
:104B400084BFB74F00257FF6E6AE00BF04EBC60179
:104B5000D1E92A01CDE920013878012804BF20A835
:104B600009F0C4F9BDF9840000281CBFBDF8861007
:104B700000293CD0BDF88010ADF80810ADF80E50FB
:104B8000BDF88210ADF80A10ADF80C00BDF8820037
:104B9000BDF88610BDF80C300844BDF80A10401A64
:104BA00080B20090D8F800008AB2BDF80810D0F8A2
:104BB00000C0DCF884C0E04700B2ADF80E003978E0
:104BC00001291BD0206802A9C26A2046904700BF75
:104BD000BDF80A00BDF80E10BDF98620084400B2E9
:104BE000ADF80A00BDF9821011448142CEDC701C80
:104BF00086B2B4F8E800B042A8D88CE6ADF804500C
:104C0000ADF80650BDF80810ADF85410BDF80A1004
:104C1000ADF800500844401EADF85800ADF8025001
:104C200016A915A809F036F9BDF85400ADF8000032
:104C3000BDF85800ADF80200BDF80800BDF80C1032
:104C40000844ADF85400BDF80A00ADF8580016A9A4
:104C500015A809F01FF9BDF80000BDF85410081A96
:104C6000401CADF80400BDF80210BDF85800401A11
:104C7000ADF8060020686946C26A20469047A7E75B
:104C800008EBC50104F1EA06384613F009FBB6F853
:104C90004000082802D300BFAFF3008006EBC0023B
:104CA000401CA6F840003946104613F0F9FA681C7B
:104CB00085B2BDF850008542E2D329B0BDE8F08F3F
:104CC00010B5B0F884300022002B12D900F1040C8A
:104CD0005CF822C08C4508D1811891F88800FF2823
:104CE0003CBF401C81F8880010BD521C92B2934218
:104CF000ECD8202B08D21A180123001D82F8883026
:104D0000B0F88020202A01D3AFF300809300521C1A
:104D1000A0F88020C15010BD0021A0F88410C0F878
:104D20008810C0F88C10C0F89010C0F89410C0F82B
:104D30009810C0F89C10C0F8A010C0F8A4107047DC
:104D4000B0F884300022002B98BF704700F1040CAB
:104D50005CF822C08C450DD100EB020C9CF888C099
:104D6000BCF1000F06D0104490F88810491E80F85E
:104D700088107047521C92B29342E7D87047B0F83F
:104D800084007047B0F884300022002B0ED900BF99
:104D900000F1040C5CF822C08C4503D1104490F85B
:104DA00088007047521C92B29342F1D8002070479D
:104DB00070B51C4901600025A0F884500823A83074
:104DC0001A46194913F081FAA0F8405008234230DE
:104DD0001A46154913F079FAA0F8405080F842506D
:104DE000A0F1EA0480F843501049114809F022FA72
:104DF000094E002818BF358006D14FF480603080FE
:104E00000220706005F04CFFF5607560B560A4F895
:104E100084500FE072010020100100207C0100206E
:104E20006C010020D4C001089D7B0108CDB5E8B518
:104E3000C2A507F4C4F88850C4F88C50C4F8905048
:104E4000C4F89450C4F89850C4F89C50C4F8A050CA
:104E50002046C4F8A45070BDFD4A10B5936873B1E4
:104E600001884FF6FF70814224BF002010BDA1F5DC
:104E70007F40FE3805D1F7480068406C10BDAFF3A5
:104E800000801069002819BF50F82100002801EBAC
:104E9000810053F8200010BD02884FF6FE70824258
:104EA00036D2EB48034641881B698A4220D280688B
:104EB00002EB820100EB81014868002814BF002B3F
:104EC000704753F82220002A08BF7047088A4B8A8F
:104ED000400BC00040EA53300B280889498900FB89
:104EE00001F018BF4000C01C20F0030010447047C0
:104EF000B0F804C08C4494450AD9511AC068C1EB7B
:104F0000C10100EB4100017B01F01F010B2901D021
:104F100000207047018940894843C01C53F8221083
:104F200020F0030008447047B6E7C94900888B6841
:104F3000DBB14A8890420AD200EB800003EB80008C
:104F4000018A408A490BC90041EA503070478B887A
:104F50001344984209D2801AC968C0EBC00001EB23
:104F60004000007B00F01F007047A0F57F41FE3934
:104F70001CBF00207047B748016891F876000028F0
:104F80001ABFC86C002888680168496A0847B04998
:104F900010B58B68A3B100884A8890423CBF00EBF3
:104FA000800003EB800009D38B881344984209D218
:104FB000801AC968C0EBC00001EB4000008910BD39
:104FC000AFF30080A0F57F41FE3912BF0020A24858
:104FD000008810BD9E4910B58B68A3B100884A882F
:104FE00090423CBF00EB800003EB800009D38B882C
:104FF0001344984209D2801AC968C0EBC00001EB83
:105000004000408910BDAFF30080A0F57F41FE391C
:1050100012BF00209148008810BD8D4A10B5D2F80B
:1050200008C0BCF1000F16D009885388994214D2E9
:1050300001EB81010CEB81010A8AB1F80CC0CB892C
:10504000498AA0F800C0C2F30C024380C1F30C01EE
:105050008280C18010BDAFF30080B2F804C09C44D0
:1050600061450AD2C91AD268C1EBC10102EB410104
:105070000A6802604968416010BDA1F57F424FF0A7
:10508000000CFE3A634609D173490A8873490988BE
:10509000A0F800C043808280C18010BDA0F800C08D
:1050A000002243808280C28010BD69498B6853B35F
:1050B00000884A88904210D200EB800003EB800009
:1050C000018A0289C1F30C0191421AD3418A4089B5
:1050D000C1F30C01814214D315E08B88134498422C
:1050E00011D2801AC968C0EBC00001EB4000B0F9D2
:1050F00004100289914204DBB0F906104089814214
:1051000001DA012070470020704770B4504C2069CC
:10511000002804BF70BC70476188A2884FF6FE75F6
:1051200011444B1C2B404FEA810CC2EBC2025B00C6
:1051300055006044C218E2602A44C4E90502002216
:105140002280266AA6EB0C0CACEB03035B1BE3612D
:10515000E28000291CBF00234FF6FF7C07D02569A1
:1051600045F823205B1C20F802CB491EF7D1A1880B
:10517000002904BF70BC704711F0010004D0E26840
:10518000137B23F020031373884232BFD4F80CC082
:1051900070BC7047C0EBC0020CEB4202801C137B5A
:1051A000884223F020031373937E23F02003937629
:1051B000F0D370BC7047264BD3F818C0BCF1000F79
:1051C00018BF7047002908BF704710B592B29A8087
:1051D000B3F802C094440CEB4C0C4FEA4C0CC2EBFD
:1051E000C2020CEB42028A4201D3AFF30080196283
:1051F0001861BDE8104088E770B5DFF854C0049C22
:10520000DCF80850002D18BF70BDCCF80800ACF8D1
:105210000210DCF81800002818BF70BD002B08BF72
:1052200070BDA0B20144ACF8040001EB410149009B
:10523000C0EBC00001EB4000984201D3AFF3008007
:10524000CCF82030CCF81020BDE870405DE70000BD
:10525000240100207C010020720100207401002044
:105260002DE9F0470E464FF6FE71884280F0F4803B
:1052700000EB8004FE48826802EB8400018A438AC6
:10528000490BC90041EA53310389B0F80AC00C291F
:1052900003FB0CF580F0E080DFE801F02412068BC0
:1052A000DC755F4F4F4F4FA1F248AB0052F82420FE
:1052B00000680168D1F834C03146BDE8F047604766
:1052C00005EB4500C01C20F00303EA48E84952F80A
:1052D000242000688969D0F800C0DCF834C0BDE83B
:1052E000F04760470320E34F00EB450020F0030840
:1052F0003868DFF87C9352F8242001684346D1F8DF
:1053000034C03146E047002808BFBDE8F087D9F82F
:10531000081001EB84014A68002A08BFBDE8F08745
:10532000E81C20F00303386806EB0801D0F800C041
:10533000DCF834C0BDE8F0476047E81C20F0030308
:10534000CC48CB4952F8242000688969D0F800C0C5
:10535000DCF834C0BDE8F047604703891FFA8CF0E1
:105360005B1C5B085843C01C20F00303C148C049C4
:1053700052F8242000688969D0F800C0DCF834C0F5
:10538000BDE8F047604703891FFA8CF0DB1C9B08DF
:105390005843C01C20F00303B648B54952F82420F6
:1053A00000688969D0F800C0DCF834C0BDE8F04777
:1053B000604703891FFA8CF0DB1DDB085843C01CD3
:1053C00020F00303AB48AA4952F8242000688969F9
:1053D000D0F800C0DCF834C0BDE8F0476047E81CF6
:1053E000A44D20F00307DFF88882286852F82420B3
:1053F0003B460168D1F834C03146E047D8F8081080
:105400004FF0000C01EB84014A6813785188002B9F
:1054100004BF042303EB810C0BD0012B04BF01EB71
:10542000410101F1040C04D0022B04BF042303EB5F
:10543000410C002808BFBDE8F0870CF1030020F004
:1054400003032868F119D0F800C0DCF834C0BDE8C7
:10545000F0476047AFF300800020BDE8F0872DE9FA
:10546000F0414FF6FE7188427DD281494F88C11BC1
:10547000C1EBC1027E49B842CB68896803EB4204A4
:1054800000EB800201EB820210D2138AB2F812C044
:105490005B0BDB0043EA5C36536811895589002BAE
:1054A00014BF4FF001084FF0000806E0237B21896C
:1054B000658903F01F064FF0000801FB05FC0C2E68
:1054C00073D2DFE806F00A1A0634702C2421212159
:1054D000213C4FEA8C00BDE8F081032000EB4C003A
:1054E00020F00301B8F1000F1ABF0CF1030020F007
:1054F000030000200844BDE8F0810CEB4C00C01C08
:1055000020F00300BDE8F0810CF1030013E0481C1B
:1055100040086843C01C20F00300BDE8F081C81CAF
:1055200080086843C01C20F00300BDE8F081C81D5E
:10553000C0086843C01C20F00300BDE8F0810021D2
:10554000B84216D2506802784088002A04BF04216D
:1055500001EB80011CD0012A04BF00EB4000011DBB
:1055600016D0022A00E01EE004BF042101EB400136
:105570000EE0207B800908BF40F2044108D00128DA
:1055800008BF4FF4417103D0022808BF4FF40171E6
:105590000CF10300C91C20F0030021F003010844B2
:1055A000BDE8F08101E0AFF300800020BDE8F081AC
:1055B0002DE9F04F2E4983B04FF6FE734A88888854
:1055C0004FF0000802EB00094FEA8902019209F14D
:1055D00001021A405200C0EBC00000924FEA400B9B
:1055E0000869019A46461044009A5F1C104400EB7B
:1055F0000B0A544646E01E48006950F82500002872
:1056000008BF21F816703BD02846FFF728FFDFF8C7
:1056100060E08446DEF8100050F82500844224D073
:105620004FEA9C0100EB81010B1A9910002912DD51
:10563000011F201F13F0040F03D051F8042F40F86E
:10564000042FDA1007D04B68436051F8083F40F848
:10565000083F521EF7D1DEF8100040F82540DEF872
:10566000140020F8167020F81850644404E000007C
:10567000240100207C01002008F101001FFA80F8BD
:10568000701C86B24E4505D2FB48416931F8165070
:10569000BD42B0D1F8488461A0F80080026A019947
:1056A000521A0099511AA1EB0B01A4EB0A02891AB4
:1056B000C16103B0BDE8F08F70B5EF4C0546A0693D
:1056C000002832D06088A1880844A8422DD9E088FB
:1056D000002818BFFFF76CFF206950F8250000284C
:1056E0001CBF012070BD2846FFF7B9FE0646E069E1
:1056F00086421AD86088854204D22846A169FFF7FD
:10570000AFFD90B12169A06941F82500E069801BD7
:10571000E061A0693044A0612188606920F81150DF
:105720002088401C2080012070BD002070BDD2491F
:105730008A6932B1096951F8200000281CBF012094
:105740007047002070472DE9F041CB4E0D460446CE
:10575000B1693069AC420AD100291FBF50F824005A
:1057600000280120BDE8F0810020BDE8F08100297B
:105770001CBF71888D4238BF8C42F5D250F824107E
:105780000029F1D050F825000028EDD12046FFF780
:1057900066FE07462846FFF762FE8742E4D130697D
:1057A00050F8241040F82510002140F8241050F83B
:1057B00025102846FFF754FD030014D00023B6F847
:1057C00000C01846BCF1000F88BF71690BD900BF3B
:1057D00031F81020A24203D121F81050012302E039
:1057E000401C6045F4D31846BDE8F08170B5A24C6A
:1057F000A16909B3216951F82020EAB1002241F8DA
:105800002020E188491CE1802188626902EB410285
:1058100032F8022C824229D1002918BF4FF6FF75B9
:1058200024D02088616901EB4000216930F8020C26
:1058300051F82010D1B901E0002070BDFFF70FFE34
:10584000A169091AA161E1690844E06120886169E0
:1058500001EB400020F8025C2088401E0004000C90
:105860002080E188A1F10101E180DAD1012070BD41
:1058700010B500214FF6FE72904201D3AFF30080C5
:105880007D4A9369002B1CBF116951F8201008460E
:1058900010BD2DE9F041784C0126002560880028D4
:1058A00038D9A069002838D06088A1880844A84267
:1058B00033D9E088002818BFFFF77AFE294620690F
:1058C00050F82500F8B90846FFF7C9FD0746E0691A
:1058D000874222D8618828468D4203D2A169FFF70A
:1058E000BFFCD0B12269A16942F82510E069C01B54
:1058F000E061A0693844A0612288616921F81250F2
:105900002088401C2080681C85B2608806F0010653
:105910008542C6D33046BDE8F081AFF300802DE963
:10592000F047554F064690463846BA880024C0686E
:1059300088B099460D46002A0CD900BFC4EBC401BB
:1059400000EB4101097B01F0200100291CBF641C10
:105950009442F3D3944202BF4FF6FF7008B0BDE803
:10596000F087C4EBC40100EB4101B8F10C0F0E81CC
:105970004D810A7B68F3040242F020020A7340D290
:10598000DFE808F006064B060606064B4B4B4B15A8
:105990000023ADF80030ADF80460C4EBC4026946E2
:1059A000ADF80230ADF8065000EB420027E0C4EB42
:1059B000C40100EB4100B9F1000F017B69F38711CD
:1059C000017306D0B9F1010F18BFB9F1020F0CD065
:1059D00017E00021ADF80810ADF80C1002AAADF8E0
:1059E0000A10ADF80E10114609E00023ADF8103092
:1059F000ADF8146004A9ADF81230ADF8165012F0ED
:105A00004FFC788820441FFA80FA5046FFF754FE76
:105A100020B3B8F10B0F0FD01CE00021ADF8181027
:105A2000ADF81C10ADF81A10ADF81E10C4EBC4018F
:105A300006AA00EB4100D6E7386950F82A1006FBA9
:105A400005F0C01C20F0030008444FF48071A0F85A
:105A50000090418008B05046BDE8F087F968C4EB7B
:105A6000C40001EB4000017B21F02001017308B06C
:105A70004FF6FF70BDE8F08724010020BB494A883B
:105A8000904211D38B88134483420DD9821AC9687E
:105A9000C2EBC20201EB4202117B11F0200F03D0D6
:105AA00021F020011173A1E600207047AF494A8818
:105AB000904207D38B881A4490423EBF096951F83F
:105AC0002000704700207047A84A10B553889842BC
:105AD00012D3B2F804C09C4484450DD9C01AD268D0
